:03040000020403F0
:0C040300787FE4F6D8FD758172020800D5
:0B3DF500250500010139071BA5C23D98
:101B900030313233343536373839414243444546A3
:101BA000424F0000535400004554000053530000BE
:101BB00055500000524600005449000056490000AC
:101BC000524300004D55000043480000544D0000B2
:101BD0004253000042410000534C000052440000B8
:101BE000424C0000415000004C5300004F460000A2
:101FCC0075D84053D9BF75D90175DA4875DB497599
:101FDC00FA8075FC1E75EA4075EB4043D94075ECF0
:021FEC00402291
:0A210400758920758E08758DB022D4
:1020910075F2FE75A47975F17F75A52075D4C775A4
:0920A100D52175E10175E241222F
:0921220043E380E5E330E6FB2213
:09212B00121FCC122104022091C4
:040420007598502259
:050412007FFF1204173A
:09041700EF301AFDC21A8F992280
:1020C3007E00540F2490F582EE341BF583E493FFD6
:0820D300301AFDC21A8F992298
:101EAB00AD07AC06ECC4540F1220C3EC1220C5ECEA
:101EBB00C4F854F0C8EDC4540F481220C3ED540FAE
:0F1ECB002490F582EE341BF583E493FF0220D3BD
:10188D00AB07AA067C037DE81214D0EF4E600F74EF
:10189D00902FF582741B3EF583E493FF80027F2029
:1018AD001220D37C037DE8AF03AE021214D0AA043C
:1018BD00AB057C007D64AF03AE021214D074902F83
:1018CD00F582741B3E1220CE7C007D64AF03AE0208
:1018DD001214D0AA04AB057C007D0AAF03AE021230
:1018ED0014D074902FF582741B3E1220CE7C007D97
:1018FD000AAF03AE021214D0AA04AB0574902BF5F7
:0C190D0082741B3AF583E493FF0220D3A0
:10202100AE07EEC4540F7C00540F2490F582EC12DD
:0D20310020CCEE540F901B9093FF0220D3A3
:0417FB0075D108227A
:0A210E007591077593807595802286
:0721340053D9BFE4F5D922E5
:0A21180075BB0875BA1175E8802246
:101C4A00C2EDD2EC30EDFD85BE5B85BD5CE52C4571
:101C5A002B7012E55CAE5B7806C333CE33CED8F96F
:101C6A00F52C8E2B22E52BC4F854F0C868FEE52C1F
:101C7A00C4540F48FFC3E52C9FF52CE52B9EF52B8A
:101C8A00E55CAE5B7802C333CE33CED8F9252CF5AA
:071C9A002CEE352BF52B2287
:0E1FEE00C2EDD2EC30EDFD85BE5085BD512216
:101FA800900020E4F0A304F000900021E004F07019
:101FB80006900020E004F0900020E0B403EAA3E0DB
:041FC800B4E8E52272
:03040F000207CC15
:1007CC00C0E0C0D075D000C000309819C298E56068
:1007DC00540F243DF8A699E560C3940F50040560AE
:1007EC008003756000309904C299D21AD000D0D021
:0307FC00D0E03218
:1020AA00E4FF1214A5B5540E740129F9E43AFA12A0
:0820BA0014A5B555010F7E00CD
:0120C20022FB
:101E7900856154856255E4F508E50875F004A424E4
:101E8900A0F9741B35F0FA7BFF1220AAEF4E600609
:101E99008508097508140508E508C3941440DAAFE4
:011EA900092F
:011EAA002215
:10203E00120412AF61120417AF62120417AF6312CB
:0C204E0004177F0D1204177F0A0204170C
:101EDA00120412903DF6E493901B9093FF1204179C
:101EEA00903DF7E493901B9093FF1204177F3012F2
:0C1EFA0004177F0D1204177F0A02041762
:10205A001204127F321204177F351204177F3012CE
:0C206A0004177F0D1204177F0A020417F0
:07213B00904000E493FF2235
:10200000C3E5379414E53664809480500575DA464C
:102010008006E4F5DA12213B0537E5377002053614
:01202000229D
:1011F400900014E0FEA3E0FFC3940FEE648094809B
:101204005016900022E07002A3E0700CD2A3D2A189
:10121400C2A2D2A0D296C297D3EF940FEE64809468
:1012240080401C900022E07002A3E07012F5DA9076
:101234000022F0A304F0E490000CF0A3F0C21530F7
:101244001543D2A3D2A1D2A2D2A0D296D297900013
:1012540022E0FEA3E0FF64024E7002C280EF64034A
:101264004E7022900002E0FEA3E0FFC3900015E060
:101274009FFF900014E09EFED3EF9414EE648094DC
:10128400804002C280201563900022E07004A3E035
:1012940064017057900014E0FEA3E0FF7C007D140D
:1012A4001214D0ED4C70441204127F4F1204177FB5
:1012B400461204171204177F0D1204177F0A120432
:1012C40017C390000DE0940390000CE064809480B8
:1012D400500EA3E004F0700690000CE004F0800BC4
:1012E400D215900022E4F0A37402F0900015E004FB
:0A12F400F07006900014E004F022F0
:101F8200E4FDFC74902DF582741B3CF583E493B55B
:101F92000705AF05AE04220DBD00010CED64104C27
:051FA20070E1E4FEFF08
:011FA7002217
:100B5E00121E79AB07EBB414004002C147900B7123
:100B6E0025E073619961D161F1810C81228134811B
:100B7E00448171817A81CA81E581F7A197A1A2C1D1
:100B8E0047A1EBA1FCC10BC11CC128E563B45014F5
:100B9E00C201C204C218E4F527752D02F531F532F3
:100BAE00D238C239E563B44604C238D239E563B4EB
:100BBE00520FC23AC238C239C21FE4F531F532F5CE
:100BCE002DC125E563B44F0AD23B752D05E4F531F1
:100BDE00F532E563B4460A303B07C23BE4F531F526
:100BEE0032C125E563B44F0AD23A752D07E4F531CB
:100BFE00F532E563B44605C23A752D10C125E52DD3
:100C0E00B4030FE563B44F0AD210E4F531F5327533
:100C1E002D06C125E563B45304D23CC214E563B47A
:100C2E004402D23DC125E563B45302D211E563B44B
:100C3E004402D212C125E563B44F1F20021CE52DDC
:100C4E0064056016E52D64136010E52D6412600ACC
:100C5E00D23E752D0DE4F531F532E563B44602C290
:100C6E003EC125E563B44402D23FC125E56364422B
:100C7E00701FF520F523F521F527F522F52DC21865
:100C8E00C202C201C22EC21DC21CF531F53243EFA3
:100C9E001030020DE563B44F1FC229D21CC214805E
:100CAE0017E563B44612C229D21CC22D303A02C2D5
:100CBE001CE490001CF0A3F0E4F5702230010BE56B
:100CCE0063B44F02D22BD2138009E563B44602D22D
:100CDE002BD213E4F56B22C22AE4F55FF531F5321F
:100CEE00F56EF56FC23BC21B22AF63121F829000DE
:100CFE0000EEF0A3EFF0900000E0FEA3E0FF7C001A
:100D0E007D0A1214BE900000EEF0A3EFF0AF641255
:100D1E001F82900001E02FF0900000E03EF0AF66E1
:100D2E00121F82900004EEF0A3EFF0900004E0FE9C
:100D3E00A3E0FF7C007D0A1214BE900004EEF0A327
:100D4E00EFF0AF67121F82900005E02FF0900004C5
:100D5E00E03EF0AF69121F82900008EEF0A3EFF0B4
:100D6E00900008E0FEA3E0FF7C007D0A1214BE9006
:100D7E000008EEF0A3EFF0AF6A121F82900009E0B8
:100D8E002FF0900008E03EF022E56364446002C15B
:100D9E0047C22022E56364546002C1471204127FE9
:100DAE00421204177B303008027B323009027B314D
:100DBE00300A027B30AF0312041730041120920662
:100DCE00200E03300F047F4680067F4380027F4E45
:100DDE001204177F0D1204177F0A020417E56364CD
:100DEE0059705690001C7402F0A3743AF022E56319
:100DFE0064537045752D11F536F537801AE563B4D9
:100E0E004903121EDAE5636448702E02205AE56328
:100E1E00B45002D214D23F02203EE563B4461AD239
:100E2E0015900022E4F0A37403F0900014E0FFA3E9
:090E3E00E0900002CFF0A3EFF0F8
:010E47002288
:101B3000E55665606059E4F5EC743D2556F8E6FF1E
:101B400024F3603B2403701B120B5EE4F530E53098
:101B500054072461F8E4F60530E530B408F0E4F504
:101B600030801C743D2556F8E6FF74612530F8A6D8
:101B700007E530C39407500405308003753007E54E
:0F1B800056C3940F5004055680A6E4F55680A175
:011B8F002233
:101E4200208130E54DC3941E502C054DE54DC394C1
:101E52001E402330020C203A09B201D219E4F531B6
:101E6200F53220020A300307B22EE4F531F532755D
:071E72004D1F22E4F54D2293
:102076001204127F501204171F1204177F52120403
:0B208600177F0D1204177F0A020417D9
:1013D800C3E5329408E531648094874002817B0537
:1013E80032E53270020531940AE531648094804018
:1013F80013E532940FE53164809480500775DA461E
:10140800D2308005E4F5DAC230AE31AF327C007DEF
:101418000A1214D0AF05EC704CEF14601414601766
:1014280014601C14602314602E24057038C2A38035
:1014380036D2A3C2A18032D2A3D2A1C2A2802CD21A
:10144800A3D2A1D2A2C2A08024D2A3D2A1D2A2D2D6
:10145800A0C296D297801FD2A3D2A1D2A2D2A0D2E4
:1014680096C2978011D2A3D2A1D2A2D2A0D296D2EC
:10147800978003752D01C3E5329409E531648094A2
:10148800804010303905752D01C239303805752D69
:0C14980002C238E52D6005E4F531F532A4
:0114A4002225
:101F3200AE31AF327C007D0A1214D0ED4C7004C277
:101F4200A38002D2A3D2A1D2A2D2A0D296D29705C6
:081F520032E532700205312274
:101A6900C3E5329405E53164809480500575DA4602
:101A79008003E4F5DAC3E5329432E5316480948079
:101A8900500ED2A3C2A1D2A2D2A0D296D2978021BF
:101A9900D2A3D2A1D2A2D2A0D296D297752D0430C8
:101AA9000203752D03300303752D03300703752DCC
:101AB900030532E53270020531E52D64026005E463
:051AC900F531F53222A9
:10163500C291C292755D00755E14E52DB40D0675F7
:101645005D00755E32AC5DAD5EAE31AF321214D069
:10165500ED4C7014300806D2A0C296D29730090E10
:10166500D2A0D296C2978006D2A0D296D297300A3F
:1016750006C2A0D296D297A20B300A01B3500C3005
:101685000A05E4F531F532A20A920B300A4DE52D33
:1016950064036047E52D640D6041C3E5329405E5BB
:1016A5003164809480500575DA468003E4F5DAC22A
:1016B50031C3E5329405E531648094805002D2311E
:1016C500D3E5329405E53164809480400EE532948B
:0C16D5000AE531648094805002D231227A
:1019FF00A207300401B35009A2079204D22AE4F5DA
:101A0F005FAE31AF327C007D0A1214D0ED64064C0C
:101A1F007047302A447FFF30041412041712041742
:101A2F007F431204177F481204177F4F801212044E
:101A3F00171204177F431204177F481204177F46AB
:101A4F001204177F0D1204177F0A120417E55FC3E4
:0A1A5F0094035003055F22C22A22FF
:10157100C3E55A942CE559648094814002C12C3012
:101581009132D2A3D2A1D2A2D2A0D296D297C3E550
:10159100359432E5346480948050080535E5357022
:1015A100020534D3E535941EE53464809480400B04
:1015B100D20C8007E4F534F535C20C209261200C81
:1015C1005E300820300F04C2968015AE31AF327CF8
:1015D100007D141214D0ED4C7004C2968002D29694
:1015E100D297D2A0300919AE31AF327C007D1412EE
:1015F10014D0ED4C7004C2978002D297D296D2A03B
:10160100300A19AE31AF327C007D141214D0ED4C8A
:101611007004C2A08002D2A0D297D296C20E22C27A
:1016210096D297D2A0300C0BD29622C296D297D2E4
:04163100A0D20E2213
:10199100200727202D241204127F571204177F419C
:1019A1001204177F4B1204177F0D1204177F0A12BE
:1019B1000417D22D753800753901302940AE38AF82
:1019C100397C007D0A1214D0ED4C70291204127F6B
:1019D100521204177F431204177F4F1204177F0D11
:1019E1001204177F0A120417E570C394035004050B
:0E19F100708002C2290539E5397002053822DE
:101ACE00202B47AE52AF537C007D141214D0ED4C38
:101ADE0070387FFF3001141204171204177F4D1255
:101AEE0004177F551204177F4F8012120417120429
:101AFE00177F4D1204177F551204177F46120417D5
:101B0E007F0D1204177F0A120417E56BC39403505E
:101B1E0004056B8004C228D22B0553E553700205D1
:021B2E00522241
:101DCD00AE31AF327C007D1E1214D0ED4C702B3035
:101DDD0029281204127F521204177F431204177F11
:101DED00461204177F0D1204177F0A120417E570AF
:0B1DFD00C394035003057022C229228A
:10043000303A08D2A3D2A1D2A2E18C200202A1F6C6
:10044000201813D218D229E4F570C21CC21D9000E6
:1004500018F0A3F0C22E30190DC219D228E4F56BA2
:10046000C22BF552F553301C0FE4F531F532C21CA6
:10047000D21DD22FF557F558121991121ACE303AD3
:1004800002E18C302F58C233C3E5589405E5576418
:100490008094805002D233D3E5589405E5576480A8
:1004A0009480400EE558940AE55764809480500289
:1004B000D233C3E5589405E55764809480500575A0
:1004C000DA468003E4F5DA0558E558AE57700205C0
:1004D0005714D3940FEE648094804002C22FA2017F
:1004E000922E200102A17F301D2C202823AE31AF97
:1004F000327C007D321214D0EC700DED14600704D4
:100500007006C2A380048008D2A3D2A1D2A2800622
:10051000D2A3D2A1C2A2301D1E30131BC3E5329458
:1005200005E53164809480500775DA46D232800741
:10053000E4F5DAC232C213A203301E01B34002A1B5
:10054000ED300317C232C237C22BC3E5329405E542
:1005500031648094805022D237A1EDC237C3E53296
:100560009405E531648094805002D237D3E532940B
:1005700005E531648094804074A203921E806E3041
:100580001D1E30131BC3E5329405E5316480948051
:10059000500775DA46D2328007E4F5DAC232C21368
:1005A000A203301E01B35022C237C3E5329405E5E1
:1005B00031648094805002D237D3E5329405E5311E
:1005C000648094804004A203921E202820301D17CE
:1005D000AE31AF327C007D321214D0ED4C7004C2CB
:1005E000A38006D2A38002C2A3D2A1D2A220280255
:1005F000E18CC2A2E18C301819C218D229E4F5703E
:10060000C21CC21DC201D22BC22EC22D900018F0F6
:10061000A3F0301C0FC21CD21DE4F531F532F557A2
:10062000F558D22F121DCD302F58C233C3E5589440
:1006300005E557648094805002D233D3E558940581
:10064000E55764809480400EE558940AE55764802D
:1006500094805002D233C3E5589405E557648094E2
:1006600080500575DA468003E4F5DA0558E558AEA2
:10067000577002055714D3940FEE648094804002A3
:10068000C22F200302E11AD21E302E47AE31AF3204
:100690007C007D141214D0ED4C7008D2A3D2A1C2FC
:1006A000A28006D2A3D2A1D2A2C3E5329405E5313D
:1006B00064809480500575DA468003E4F5DAC23729
:1006C000C3E5329405E531648094804002E18CD228
:1006D00037E18CC3E5329405E5316480948050079E
:1006E00075DA46D2A28003E4F5DAC237C3E5329464
:1006F00005E531648094805002D237D3E532940509
:10070000E531648094805002E18CE532940AE53151
:10071000648094805076D2378072301E34C237C3E2
:10072000E5329405E531648094805007D23775DA5C
:10073000468003E4F5DAD3E5329405E5316480942C
:1007400080400EE532940AE531648094805002D2F4
:1007500037D2A1D2A220292B200728202A25D3E591
:10076000329414E531648094804012752D04E4F5D0
:1007700031F532C21DC21EF5DAF526F528D2A3D214
:10078000A1D2A2302904C2A38002D2A3300A3CD352
:10079000E532940AE53164809480402F20072CC212
:1007A0003190000AE0FEA3E0FF9405EE648094809F
:1007B0005002D231D3EF9405EE64809480400CEF68
:0C07C000940AEE648094805002D2312232
:100F67001219FF202A39200705121635803112156C
:100F770071C3E56F9405E56E64809480500775DA58
:100F870046D2408005E4F5DAC240C3E56F9414E524
:100F97006E648094805008056FE56F7002056E12CD
:100FA7000430301419AE31AF327C007D031214D0F7
:100FB700ED4C6004C2A38002D2A3D2A1D2A2053213
:100FC700E532AE317002053114D3946FEE6480942C
:100FD70097400675310B7532B890000AE475F00139
:100FE700121506FED3E5F094B7EE6480948B4007A4
:080FF700E490000AF0A3F022CF
:10191900D2A3D2A1D2A2D2A0D296D297C3E53294B1
:1019290014E53164809480500575DA468003E4F546
:10193900DAE4F526F528D3E5329414E53164809488
:1019490080402E30202BAE31AF327C007D14121432
:10195900D0ED4C701C1204127F421204177F5312EF
:1019690004177F441204177F0D1204177F0A12040B
:1019790017300713752D03D2A3D2A1D2A2D2A0D2B8
:0819890096D297C22CC2202265
:100E4800A20B300A01B3500E300A07E490000AF0F2
:100E5800A3F0A20A920B300A30E4F5DAC23190000E
:100E68000AE0FEA3E0FFC39405EE6480948050027C
:100E7800D231D3EF9405EE64809480400CEF940A4D
:100E8800EE648094805002D231AE31AF327C007D66
:100E9800321214D0ED4C7014300806D2A0C296D28B
:100EA8009730090ED2A0D296C2978006D2A0D296C9
:100EB800D297300A2BC2A0D296D297D3E53C94643D
:100EC800E53B648094804018752D12E4F531F532C5
:100ED800900012F0A3F0C21FC218C202D22CD22076
:100EE800300303752D03300203752D033007037596
:100EF8002D03E52D64046005E4F531F5323014174F
:100F0800AE31AF327C007D031214D0ED4C6004C2C8
:100F1800A38006D2A38002D2A3D2A1D2A2C3E53273
:100F28009470E53164809497500A0532E53270096F
:100F380005318005E4F531F532C390000BE094B833
:100F480090000AE06480948B500DA3E004F0700ECA
:0F0F580090000AE004F022E490000AF0A3F022D7
:101CA100203A5230023020180BD218D229E4F570B4
:101CB100C21CC21D30190DC219D228C22BE4F56B0A
:101CC100F552F553301C09E4F531F532C21CD21D31
:101CD100121991021ACE30180DC218E4F570C21C07
:101CE100C21DD229C201301C09E4F531F532C21CF2
:061CF100D21D121DCD22E0
:1012FE00D2A0D296D297D2A3D2A1D2A21219FF1205
:10130E001CA1201B44203B0261BBC234C3E53294B6
:10131E000AE53164809480502CC3E5329405E531A2
:10132E00648094805002D234D3E5329405E5316462
:10133E008094804078E532940AE531648094805040
:10134E006CD2348068D21B8064203B61C3E532943A
:10135E001EE531648094805047C3E532940FE53129
:10136E0064809480501EAE31AF327C007D05121425
:10137E00D0C3ED9404EC64809480500575DA4680F9
:10138E0003E4F5DAC234AE31AF327C007D0A1214BA
:10139E00D0C3ED9409EC648094805011D234800D4A
:1013AE0075310075321E752D03C23BC21BC3E5326B
:1013BE00943CE5316480948050090532E532700921
:0A13CE0005312275310075321E2230
:101D4300C3E532940AE531648094805034E5317000
:101D530021E53224FE600C24FD601024057013D2AB
:101D6300358000D2A3D2A1C2A2800DE4F5DAC23538
:101D73008006D2A3D2A1D2A20532E532700C05317E
:0B1D830022753100753232752D0322ED
:101F0600E4F5DAF526F528D2A3D2A1D2A2C21F3073
:101F16000211C218C202C201C22EC21DC21CD2299F
:0C1F2600121DCD752D03E4F531F53222BB
:1020F000C21FC218C202C21D752D03300705E4F5C8
:0421000031F5322261
:10177D00AE31AF327C007D031214D0EC7031ED141C
:10178D00601114601C24027026C2A0D296D297C29A
:10179D00A38024D2A0C296D297D2A3C2A1D2A280F6
:1017AD001AD2A0D296C297D2A3D2A1C2A2800CD235
:1017BD00A0D296D297D2A3D2A1D2A2200714D2A0A2
:1017CD00D296D297D2A3D2A1D2A2752D03E4F53130
:1017DD00F5320532E532AE317002053114D3946F16
:0E17ED00EE64809497400675310B7532B82279
:1020DB00D2A0D296D297D2A3D2A1D2A2752D03E4CD
:0520EB00F531F5322281
:101BF000200A07E4F5DAF526F5281219FF20070573
:101C00001216358003121571AE31AF327C007D02A1
:101C10001214D0ED4C7008D2A3C2A1D2A28006D279
:101C2000A3D2A1D2A20532E532AE31700205311441
:101C3000D3946FEE64809497400F300A06E4F53138
:0A1C4000F5322275310B7532B8221F
:101E0800200A07E4F5DAF526F5281219FF20070558
:101E18001216358003121571D2A3C2A1D2A20532BF
:101E2800E532AE317002053114D3946FEE648094BC
:0A1E380097400675310B7532B82291
:101800000532E53270020531C39432E531648094CB
:10181000805056AE31AF327C007D0A1214D0ED6498
:10182000024C700EC2A3C2A1C2A2C2A0C296C297AD
:10183000800CD2A3D2A1D2A2D2A0D296D297C3E5D5
:10184000329419E531648094805041AE31AF327CDE
:10185000007D051214D0C3ED9404EC648094805094
:101860000475DA4622E4F5DA22752D03E4F531F544
:1018700032D2A3D2A1D2A2D2A0D296D297200B0666
:0D188000201803301406C21FC218C2022235
:101CF700AE31AF327C007D021214D0ED4C700EC2B3
:101D0700A3C2A1C2A2D2A0D296D297800CD2A3D24C
:101D1700A1D2A2C2A0C296C297E4F5DAF526F528A9
:101D27000532E532AE317002053114D3946FEE649B
:0C1D3700809497400675310B7532B8227D
:1016E100900000E0FEA3E0FF7C007D3C1214BE9060
:1016F1000004E0FCA3E02FFFEC3EFE900008E07048
:1017010002A3E060050FBF00010EC3EF94B4EE64C5
:101711008094804005E4FAFB80047A007B01EB644D
:10172100014A700FC3EF943CEE6480948050047AB8
:10173100007B02EB64024A700FC3EF941EEE6480DB
:10174100948050047A007B03EB64034A700FC3EF6B
:101751009405EE6480948050047A007B04EA70154D
:10176100EB14600A04700ED2A3C2A1D2A222D2A3AA
:0B177100D2A1C2A222C2A3D2A1D2A228
:01177C00224A
:101D8E001219FF202A0D200705121635800712158D
:101D9E00718002C2961216E10532E532AE31700242
:101DAE00053114D39432EE64809480401175310B5A
:0F1DBE007532B9752D03C23ED2A0D296D29722AC
:10100000E52DC39402500201D9A22EB3308601B35C
:101010005005E4F531F532A203309401B35005E4F4
:10102000F531F532A22EB39286A2949203200302E8
:10103000C22E308208202C05203A02D21F201F0227
:1010400001D9C3900019E09432900018E0648094B4
:1010500080500EA3E004F07006900018E004F080C9
:1010600078C390001DE0945890001CE06480948246
:10107000500CA3E004F0700690001CE004F0A28283
:10108000B35024C390001DE0945890001CE064808D
:1010900094824013A282B3300201B35005E4F531CB
:1010A000F532A282B39202A282B3402DA282B33063
:1010B0000201B35024E56D9403E56C648094804094
:1010C00010E4F56CF56DF531F532A282B392028031
:1010D00008056DE56D7002056C121E42303C057509
:1010E0002D08C23C303D0A752D09C23DE4F531F5AD
:1010F0003230110A752D0AC211E4F531F532301281
:101100000A752D0BC212E4F531F532303F0A752D08
:101110000CC23FE4F531F532E52D600D30380A752B
:101120002D02E4F531F532C238E52DB41400400249
:1011300021E690113825E07321602165216A216F35
:1011400021742179217E21832188218D219221976B
:1011500021A221A721AC21E621B121B621BB21E3A7
:101160001213D821E6121F32807C121A698077127E
:101170000F678072120E48806D1212FE8068121D79
:10118000438063121F06805E12177D80591220DB98
:101190008054121BF0804F121E08122076E4F52DA9
:1011A0008044121800803F121D8E803A121CF78076
:1011B000351220F08030122000802B121919C3E55F
:1011C000329453E5316480948050080532E53270E2
:1011D000020531900013E004F07006900012E00464
:1011E000F080031211F4E5267004E5286003D2951F
:0411F00022C2952260
:03042D000204279F
:0604270053917FB2003288
:03042400021F5A5A
:101F5A00C0E0C0D030D919C2D9E54FF5E9E54EF550
:101F6A00EAD206E425E9F54FE5EA3464F54E800342
:081F7A0053D879D0D0D0E03239
:10080000C2A3E4F520F523F521F527F522F52DA265
:100810002EB39286F533F56CF56DC22CC220900094
:100820001C7402F0A37459F0C23AC238C239D2081B
:10083000C22DD22BE4F52BF52CF550F551C203C295
:100840002EC202D20790000AF0A3F0F54D12212B20
:10085000D291D292C29512213412210E120420128A
:1008600017FB122118D2ACD28ED299C21A9000185E
:10087000E4F0A37432F0E4F5E643E61043E680D2F8
:10088000AFF5EC755453755554C2A3C2A1C2A2C2B0
:10089000A0C296C297122076D280E4900014F0A3F2
:1008A000F0900024F0A3F0C21690001AF0A3F0C25A
:1008B0001790001EF0A3F0900016F0A3F0F559F584
:1008C0005AE4F5EC121B303006F7C206121000A2F3
:1008D00093B39207121C4A900025E004F070069032
:1008E0000024E004F0900024E0FEA3E0FF7C007D03
:1008F000021214D0ED4C600221D930070221D93008
:10090000170221D930180221D975BB07121FA8126E
:100910001FEE75BB0890001AE0FEA3E0FFEE600238
:1009200021D9EF14602F14700221B024026002213B
:10093000D9D3900025E0942C900024E06480948129
:100940005009E52DC39402500221D990001AE4F019
:10095000A304F021D9D3E5519400E5509403400E4F
:1009600090000FE004F0700690000EE004F0C3E584
:100970005094035007E490000EF0A3F090000EE0B6
:10098000FEA3E0FFD39407EE64809480400CC2A3E2
:10099000D2A1D2A2C2A0D296D297D3EF940AEE648B
:1009A000809480403490001AE4F0A37402F080290F
:1009B000752D1375DA46E4900014F0A3F090002230
:1009C000F0A3F0D217D2A3D2A1D2A2D2A0D296D2B3
:1009D0009790001AF0A37403F0300818E52DB404C2
:1009E00013752900752A5AC3E52B94EA5006752918
:1009F00000752ABEE4F53A300A03433A0130090390
:100A0000433A02300803433A0430074DC390001FB5
:100A1000E0945890001EE064809482500EA3E0049D
:100A2000F0705190001EE004F08049E490001EF048
:100A3000A3F0C3900017E09468900016E0648094DF
:100A400081500CA3E004F07006900016E004F0055D
:100A50005AE55A701F0559801BE490001EF0A3F060
:100A6000900016F0A3F0F559F55AC20FF534F5359C
:100A7000C20CC23AE53A24FE607224FE7002612E76
:100A8000240360026146D3E52C9430E52B94E340C7
:100A90001FD3900017E09414900016E064809480B7
:100AA000400EC208D209C20AE4F0A3F0F571F57253
:100AB000C3E52C9490E52B94CD501AE52DB4041584
:100AC000C3E53C94C8E53B648094805008053CE550
:100AD0003C7002053BD3E52C9490E52B94CD406C03
:100AE000E52D64047066F53BF53C8060C3E52C940D
:100AF00060E52B94D15006C208C209D20AD3E52C76
:100B00009400E52B94EA4044D3900017E09464905D
:100B10000016E0648094804033D208C209C20AE41F
:100B2000F571F572F0A3F0F529752A5A801EC3E518
:100B30002C9460E52B94DC5013C208D209C20AE45D
:100B4000F571F5728006C208C209D20AE533C39472
:0E0B5000145004053301C1E4F5ECF53301C186
:1014A500BB010689828A83E0225002E722BBFE0245
:0914B500E32289828A83E4932278
:1014BE00EF8DF0A4A8F0CF8CF0A428CE8DF0A42E42
:0214CE00FE22FC
:1014D000C2D5EC30E709B2D5E4C39DFDE49CFCEE37
:1014E00030E715B2D5E4C39FFFE49EFE12151CC37E
:1014F000E49DFDE49CFC800312151C30D507C3E479
:061500009FFFE49EFE22A5
:10150600A3F8E0C5F025F0F0E58215827002158398
:06151600E0C838F0E822F5
:10151C00BC000BBE0029EF8DF084FFADF022E4CCB3
:10152C00F875F008EF2FFFEE33FEEC33FCEE9DEC7C
:10153C00984005FCEE9DFE0FD5F0E9E4CEFD22EDC2
:10154C00F8F5F0EE8420D21CFEADF075F008EF2F0C
:10155C00FFED33FD4007985006D5F0F222C398FDFD
:05156C000FD5F0EA229A
:00000001FF
