:03000000022023B8
:0C202300787FE4F6D8FD75815C02007641
:0B203B00250600010138071BA5C23D6F
:101AB700303132333435363738394142434445467D
:101AC700424F000053540000455400005353000098
:101AD7005550000052460000544900005649000086
:101AE700524300004D55000043480000544D00008C
:101AF7004253000042410000534C00005244000092
:101B0700424C0000415000004C5300004F4600007B
:101F220075D84053D9BF75D90175DA4875DB497543
:101F3200FA8075FC1E75EA4075EB4043D94075EC9A
:021F420040223B
:0A204600758920758E08758DB02293
:101F650075F2FE75F36F75A4F975A52075A66075F4
:0F1F7500D4C775D52175D69075E10175E241226B
:0420710075B2C12261
:0C202F00121F22122046121F65022071B1
:0420750075985022E8
:0D1FE900121FF6121FF67F0D121FF67F0A61
:091FF600EF3022FDC2228F992276
:101FBA007E00540F24B7F582EE341AF583E493FFBA
:081FCA003022FDC2228F992292
:101E0500AD07AC06ECC4540F121FBAEC121FBCECA4
:101E1500C4F854F0C8EDC4540F48121FBAED540F5E
:0F1E250024B7F582EE341AF583E493FF021FCA47
:1016BB00AB07AA067C037DE812135FEF4E600F7435
:1016CB00B72FF582741A3EF583E493FF80027F20D7
:1016DB00121FCA7C037DE8AF03AE0212135FAA048C
:1016EB00AB057C007D64AF03AE0212135F74B72FA2
:1016FB00F582741A3E121FC57C007D64AF03AE02E7
:10170B0012135FAA04AB057C007D0AAF03AE021275
:10171B00135F74B72FF582741A3E121FC57C007DC0
:10172B000AAF03AE0212135FAA04AB0574B72BF515
:0C173B0082741A3AF583E493FF021FCA7F
:101F8400AE07EEC4540F7C00540F24B7F582EC1254
:0D1F94001FC3EE540F901AB793FF021FCA2F
:0420790075D10822F3
:0A2050007591077593807595802245
:07006C0053D9BFE4F5D922CE
:0A205A00E4F5BB75BA1F75E880229B
:101B7300C2EDD2EC30EDFD85BE4D85BD4EE52C4565
:101B83002B7012E54EAE4D7806C333CE33CED8F963
:101B9300F52C8E2B22E52BC4F854F0C868FEE52CF7
:101BA300C4540F48FFC3E52C9FF52CE52B9EF52B62
:101BB300E54EAE4D7802C333CE33CED8F9252CF59E
:071BC3002CEE352BF52B225F
:0E005E00C2EDD2EC30EDFD85BE4885BD4922D5
:0E201500C2EDD2EC30EDFD85BE4685BD472202
:101EDB0090003CE4F0A304F00090003DE004F070AF
:101EEB000690003CE004F090003CE0B403EAA3E071
:041EFB00B4E8E52240
:03002300020026B2
:10002600C0E0C0D075D000C000309819C298E55025
:10003600540F2433F8A699E550C3940F5004055085
:100046008003755000309904C299D222D000D0D0D6
:03005600D0E032C5
:101FA100E4FF121334B54A0E740129F9E43AFA1226
:081FB1001334B54B010F7E0053
:011FB9002205
:101D700085514A85524BE4F508E50875F004A42422
:101D8000C7F9741A35F0FA7BFF121FA1EF4E6006F7
:101D90008508097508140508E508C3941440DAAFEE
:011DA0000939
:011DA100221F
:101F44007FFF121FF6121FF6AF51121FF6AF521287
:101F54001FF6AF53121FF67F0D121FF67F0A021FE2
:011F6400F686
:101DD4007FFF121FF6121FF690203CE493901AB76F
:101DE40093FF121FF690203DE493901AB793FF12CD
:101DF4001FF67F30121FF67F0D121FF67F0A021F97
:011E0400F6E7
:101EFF007FFF30480F121FF6121FF67F33121FF6A7
:101F0F007F30800B121FF6121FF67F78121FF6120A
:031F1F001FE92295
:07206400904000E493FF220D
:101E6200C3900015E09414900014E06480948050B4
:101E72000575DA468006E4F5DA122064900015E072
:0B1E820004F07006900014E004F02251
:100F7E00900022E0FEA3E0FFC3940FEE6480948005
:100F8E005016900040E07002A3E0700CD2A3D2A1E4
:100F9E00C2A2D2A0D296C297D3EF940FEE648094E1
:100FAE0080401C900040E07002A3E07012F5DA90D1
:100FBE000040F0A304F0E4900018F0A3F0C2153046
:100FCE001543D2A3D2A1D2A2D2A0D296D29790008C
:100FDE0040E0FEA3E0FF64024E7002C2A5EF640380
:100FEE004E7022900006E0FEA3E0FFC3900023E0C7
:100FFE009FFF900022E09EFED3EF9414EE64809447
:10100E00804002C2A520155B900040E07004A3E072
:10101E006401704F900022E0FEA3E0FF7C007D147F
:10102E0012135FED4C703C7FFF121FF6121FF67FFE
:10103E004F121FF67F46121FE9C3900019E094036A
:10104E00900018E064809480500EA3E004F07006C7
:10105E00900018E004F0800BD215900040E4F0A34D
:10106E007402F0900023E004F07006900022E00479
:02107E00F0225E
:101EB500E4FDFC74B72DF582741A3CF583E493B503
:101EC5000705AF05AE04220DBD00010CED64104CF5
:051ED50070E1E4FEFFD6
:011EDA0022E5
:1008D600121D70AB07EBB414004003020C11900814
:1008E600EBF828287302092702096402098902091C
:1008F600A70209C00209D30209E4020A14020A1E69
:10090600020A70020A8B020AA1020B41020B4D0277
:100916000B9C020BB3020BC4020BD5020BE6020BB7
:10092600F2E553B45016C201C204C220E4F528759C
:100936002D0290000AF0A3F0D240C241E553B4461E
:1009460004C240D241E553B45211C242C240C24130
:10095600C227E490000AF0A3F0F52D020BEFE55351
:10096600B44F0CD243752D05E490000AF0A3F0E5D0
:1009760053B4460C304309C243E490000AF0A3F096
:10098600020BEFE553B44F0CD242752D07E49000ED
:100996000AF0A3F0E553B44605C242752D10020BCA
:1009A600EFE52DB40311E553B44F0CD210E49000DB
:1009B6000AF0A3F0752D06020BEFE553B45304D2EB
:1009C60044C214E553B44402D245020BEFE553B4D6
:1009D6005302D211E553B44402D212020BEFE5538F
:1009E600B44F2120021EE52D64056018E52D641321
:1009F6006012E52D6412600CD246752D0DE4900050
:100A06000AF0A3F0E553B44602C246020BEFE553E3
:100A1600B44402D247020BEFE55364427021F5203D
:100A2600F524F521F528F522F52DC220C202C201D2
:100A3600C236C225C22490000AF0A3F043EF10305C
:100A4600020DE553B44F1FC231D224C2148017E5FC
:100A560053B44612C231D224C235304202C224E413
:100A6600900030F0A3F0E4F55C2230010BE553B4BE
:100A76004F02D233D2138009E553B44602D233D2A1
:100A860013E4F55B22C232E4F54F90000AF0A3F0BE
:100A960090003EF0A3F0C243C22322AF53121EB50C
:100AA600900002EEF0A3EFF0900002E0FEA3E0FF5C
:100AB6007C007D0A12134D900002EEF0A3EFF0AF1A
:100AC60054121EB5900003E02FF0900002E03EF0B5
:100AD600AF56121EB5900008EEF0A3EFF090000896
:100AE600E0FEA3E0FF7C007D0A12134D900008EEA5
:100AF600F0A3EFF0AF57121EB5900009E02FF0906B
:100B06000008E03EF0AF59121EB590000EEEF0A3BD
:100B1600EFF090000EE0FEA3E0FF7C007D0A1213CA
:100B26004D90000EEEF0A3EFF0AF5A121EB59000F6
:100B36000FE02FF090000EE03EF022E55364446093
:100B460003020C11C22822E55364546003020C11FF
:100B56007FFF121FF6121FF67F42121FF67B303000
:100B660008027B323009027B31300A027B30AF0348
:100B7600121FF6300411209206200E03300F047F58
:100B86004680067F4380027F4E121FF67F0D121F9E
:100B9600F67F0A021FF6E5536450706FD218900074
:100BA60038F0A304F0E4900004F0A3F022E55364C7
:100BB6005970589000307402F0A3743AF022E5534D
:100BC60064537047752D11900014F0A3F0801AE558
:100BD60053B44903121DD4E5536448702E021EFF18
:100BE600E553B45002D214D247021F44E553B4462B
:100BF6001AD215900040E4F0A37403F0900022E0AE
:0B0C0600FFA3E0900006CFF0A3EFF08A
:010C110022C0
:101A5700E54C65506059E4F5EC7433254CF8E6FF26
:101A670024F3603B2403701B1208D6E4F530E530FD
:101A770054072451F8E4F60530E530B408F0E4F5EE
:101A870030801C7433254CF8E6FF74512530F8A6D6
:101A970007E530C39407500405308003753007E528
:0F1AA7004CC3940F5004054C80A6E4F54C80A16D
:011AB600220D
:101CFB00208134E543C3941E50300543E543C39420
:101D0B001E402730020E20420BB201D221E490007C
:101D1B000AF0A3F020020C300309B236E490000A5B
:0B1D2B00F0A3F075431F22E4F54322F3
:100003007FFF121FF6121FF67F50121FF61F121FDB
:10001300F67F52121FF67F0D121FF67F0A021FF69C
:10116B00C390000BE0940890000AE06480948740E1
:10117B0003021221A3E004F0700690000AE004F0D1
:10118B0090000AE0FEA3E0FFD3940AEE6480948003
:10119B004011EF940FEE64809480500775DA46D2BD
:1011AB00388005E4F5DAC23890000AE0FEA3E0FFD0
:1011BB007C007D0A12135FAF05EC704CEF146014CA
:1011CB0014601714601C14602314602E24057038EF
:1011DB00C2A38036D2A3C2A18032D2A3D2A1C2A213
:1011EB00802CD2A3D2A1D2A2C2A08024D2A3D2A1FE
:1011FB00D2A2D2A0C296D297801FD2A3D2A1D2A242
:10120B00D2A0D296C2978011D2A3D2A1D2A2D2A041
:10121B00D296D2978003752D01C390000BE09409F1
:10122B0090000AE0648094804010304105752D01D8
:10123B00C241304005752D02C240E52D6007E49098
:05124B00000AF0A3F011
:01125000227B
:101DA20090000AE0FEA3E0FF7C007D0A12135FEDC3
:101DB2004C7004C2A38002D2A3D2A1D2A2D2A0D2DA
:101DC20096D29790000BE004F0700690000AE004AF
:021DD200F022FD
:10184B0090000AE0FEA3E0FFC39405EE6480948051
:10185B00500575DA468003E4F5DAC3EF9432EE6493
:10186B00809480500ED2A3C2A1D2A2D2A0D296D283
:10187B00978021D2A3D2A1D2A2D2A0D296D2977511
:10188B002D04300203752D03300303752D03300730
:10189B0003752D0390000BE004F0700690000AE036
:1018AB0004F0E52D64026007E490000AF0A3F02237
:10141600C291C292900032E4F0A37414F0E52DB4A8
:101426000D09900032E4F0A37432F0900032E0FC33
:10143600A3E0FD90000AE0FEA3E0FF12135FED4C6F
:101446007014300806D2A0C296D29730090ED2A0E8
:10145600D296C2978006D2A0D296D297300A06C2FA
:10146600A0D296D297A20B300A01B3500E300A07CB
:10147600E490000AF0A3F0A20A920B300A53E52D7D
:101486006403604DE52D640D604790000AE0FEA3FD
:10149600E0FFC39405EE64809480500575DA4680BB
:1014A60003E4F5DAC239C3EF9405EE648094805004
:1014B60002D23990000AE0FEA3E0FFD39405EE6461
:1014C600809480400CEF940AEE648094805002D29F
:0214D6003922B9
:10199100A207300401B35009A2079204D232E4F540
:1019A1004F90000AE0FEA3E0FF7C007D0A12135F66
:1019B100ED64064C703D30323A7FFF300414121F43
:1019C100F6121FF67F43121FF67F48121FF67F4F54
:1019D1008012121FF6121FF67F43121FF67F481264
:1019E1001FF67F46121FECE54FC394035003054FCA
:0419F10022C23222BA
:10125100C390002FE0942C90002EE0648094814094
:101261000302132B30913ED2A3D2A1D2A2D2A0D29B
:1012710096D297C3900011E09432900010E0648000
:101281009480500CA3E004F07006900010E004F08C
:10129100D3900011E0941E900010E064809480408F
:1012A1000DD20C8009E4900010F0A3F0C20C209242
:1012B1006D200C6A300824300F04C296801990000A
:1012C1000AE0FEA3E0FF7C007D1412135FED4C7079
:1012D10004C2968002D296D297D2A030091D900006
:1012E1000AE0FEA3E0FF7C007D1412135FED4C7059
:1012F10004C2978002D297D296D2A0300A1D9000E4
:101301000AE0FEA3E0FF7C007D1412135FED4C7038
:1013110004C2A08002D2A0D297D296C20E22C29657
:10132100D297D2A0300C0BD29622C296D297D2A0DD
:03133100D20E22B7
:1018BB002007242035217FFF121FF6121FF67F57BA
:1018CB00121FF67F41121FF67F4B121FECD2359081
:1018DB000016E4F0A304F0303145900016E0FEA3AF
:1018EB00E0FF7C007D0A12135FED4C70247FFF122A
:1018FB001FF6121FF67F52121FF67F43121FF67F41
:10190B004F121FECE55CC394035004055C8002C2CC
:10191B0031900017E004F07006900016E004F022FE
:1019F500203341900024E0FEA3E0FF7C007D14121B
:101A0500135FED4C702E7FFF300114121FF6121F6D
:101A1500F67F4D121FF67F55121FF67F4F8012126B
:101A25001FF6121FF67F4D121FF67F55121FF67F08
:101A350046121FECE55BC394035004055B8004C2AA
:101A450030D233900025E004F07006900024E004C5
:021A5500F0227D
:101D360090000AE0FEA3E0FF7C007D1E12135FED1B
:101D46004C70263031237FFF121FF6121FF67F528A
:101D5600121FF67F43121FF67F46121FECE55CC387
:0A1D660094035003055C22C23122F1
:1004EE00304209D2A3D2A1D2A20208922002030264
:1004FE0006E0202013D220D231E4F55CC224C225BE
:10050E00900028F0A3F0C23630210FC221D230E481
:10051E00F55BC233900024F0A3F0302413E4900076
:10052E000AF0A3F0C224D225D23790002AF0A3F00D
:10053E001218BB1219F5304203020892303759C215
:10054E003B90002AE0FEA3E0FFC39405EE64809486
:10055E00805002D23BD3EF9405EE64809480400C21
:10056E00EF940AEE648094805002D23BC3EF940560
:10057E00EE64809480500575DA468003E4F5DA90D7
:10058E00002AE475F0011213ABFED3E5F0940FEEE2
:10059E00648094804002C237A20192362001030289
:1005AE00065C30253020302790000AE0FEA3E0FFE5
:1005BE007C007D3212135FEC700DED146007047039
:1005CE0006C2A380048008D2A3D2A1D2A28006D2F2
:1005DE00A3D2A1C2A230252230131FC390000BE07C
:1005EE00940590000AE064809480500775DA46D234
:1005FE003A8007E4F5DAC23AC213A203302601B3F9
:10060E0040030206D530031CC23AC23FC233C39028
:10061E00000BE0940590000AE0648094805029D28B
:10062E003F0206D5C23F90000AE0FEA3E0FFC3944E
:10063E0005EE648094805002D23FD3EF9405EE64B1
:10064E0080948050030206D5A2039226807930252D
:10065E002230131FC390000BE0940590000AE06453
:10066E00809480500775DA46D23A8007E4F5DAC2F4
:10067E003AC213A203302601B35025C23F90000A9E
:10068E00E0FEA3E0FFC39405EE648094805002D296
:10069E003FD3EF9405EE648094804004A20392262B
:1006AE0020302430251B90000AE0FEA3E0FF7C00E2
:1006BE007D3212135FED4C7004C2A38006D2A3806C
:1006CE0002C2A3D2A1D2A2203003020892C2A20279
:1006DE000892302019C220D231E4F55CC224C22522
:1006EE00C201D233C236C235900028F0A3F03024B6
:1006FE0013C224D225E490000AF0A3F090002AF051
:10070E00A3F0D237121D36303759C23B90002AE083
:10071E00FEA3E0FFC39405EE648094805002D23BAA
:10072E00D3EF9405EE64809480400CEF940AEE644F
:10073E008094805002D23BC3EF9405EE6480948087
:10074E00500575DA468003E4F5DA90002AE475F078
:10075E00011213ABFED3E5F0940FEE64809480404B
:10076E0002C23720030302081CD2263036529000F4
:10077E000AE0FAA3E0FB7C007D14FFAE0212135FC9
:10078E00ED4C7008D2A3D2A1C2A28006D2A3D2A1F0
:10079E00D2A2C3EB9405EA64809480500575DA46C4
:1007AE008003E4F5DAC23FC390000BE0940590009D
:1007BE000AE0648094804003020892D23F020892BD
:1007CE0090000AE0FEA3E0FFC39405EE64809480DF
:1007DE00500775DA46D2A28003E4F5DAC23FC3EFC2
:1007EE009405EE648094805002D23F90000AE0FEA1
:1007FE00A3E0FFD39405EE64809480500302089228
:10080E00EF940AEE64809480507AD23F8076302640
:10081E0035C23F90000AE0FEA3E0FFC39405EE64EC
:10082E008094805007D23F75DA468003E4F5DAD320
:10083E00EF9405EE64809480400CEF940AEE648091
:10084E0094805002D23FD2A1D2A220312E20072B6B
:10085E00203228D390000BE0941490000AE06480BC
:10086E0094804011752D04E4F0A3F0C225C226F544
:10087E00DAF527F52AD2A3D2A1D2A2303104C2A32F
:10088E008002D2A3300A40D390000BE0940A90006D
:10089E000AE064809480402F20072CC23990001209
:1008AE00E0FEA3E0FF9405EE648094805002D239FE
:1008BE00D3EF9405EE64809480400CEF940AEE64BE
:0808CE008094805002D239220F
:1014D800121991203242200705121416803A12126E
:1014E8005190003EE0FEA3E0FFC39405EE648094B3
:1014F80080500775DA46D2508005E4F5DAC250C349
:10150800EF9414EE64809480500E90003FE004F055
:10151800700690003EE004F01204EE30141D9000B6
:101528000AE0FEA3E0FF7C007D0312135FED4C6030
:1015380004C2A38002D2A3D2A1D2A290000AE47569
:10154800F0011213ABFED3E5F0946FEE648094972C
:10155800400A90000A740BF0A374B8F0900012E4EB
:1015680075F0011213ABFED3E5F094B7EE648094E6
:0B1578008B4007E4900012F0A3F0226B
:1017D100D2A3D2A1D2A2D2A0D296D29790000AE0EF
:1017E100FEA3E0FFC39414EE64809480500575DA83
:1017F100468003E4F5DAE4F527F52AD3EF9414EEF5
:1018010064809480402D30282A90000AE0FEA3E0F5
:10181100FF7C007D1412135FED4C70177FFF121FC8
:10182100F6121FF67F42121FF67F53121FF67F44F6
:10183100121FEC300713752D03D2A3D2A1D2A2D26D
:0A184100A0D296D297C234C228222A
:100E4500A20B300A01B3500E300A07E4900012F0ED
:100E5500A3F0A20A920B300A30E4F5DAC239900009
:100E650012E0FEA3E0FFC39405EE64809480500277
:100E7500D239D3EF9405EE64809480400CEF940A48
:100E8500EE648094805002D23990000AE0FEA3E01F
:100E9500FF7C007D3212135FED4C7014300806D2D2
:100EA500A0C296D29730090ED2A0D296C2978006DC
:100EB500D2A0D296D297300A31C2A0D296D297D379
:100EC50090001BE0946490001AE064809480401ABE
:100ED500752D12E490000AF0A3F0900020F0A3F025
:100EE500C227C220C202D234D228300303752D0393
:100EF500300203752D03300703752D03E52D6404BA
:100F05006007E490000AF0A3F030141B90000AE09B
:100F1500FEA3E0FF7C007D0312135FED4C6004C26D
:100F2500A38006D2A38002D2A3D2A1D2A2C39000ED
:100F35000BE0947090000AE064809497500EA3E053
:100F450004F0700F90000AE004F08007E490000AB6
:100F5500F0A3F0C3900013E094B8900012E0648011
:100F6500948B500DA3E004F0700E900012E004F095
:090F750022E4900012F0A3F02226
:101B170020425830023420200BD220D231E4F55C29
:101B2700C224C22530210FC221D230C233E4F55B73
:101B3700900024F0A3F030240BE490000AF0A3F007
:101B4700C224D2251218BB0219F530200DC220E499
:101B5700F55CC224C225D231C20130240BE49000C7
:0C1B67000AF0A3F0C224D225121D362281
:10108000D2A0D296D297D2A3D2A1D2A212199112F3
:101090001B17202344204303021143C23C90000A43
:1010A000E0FEA3E0FFC3940AEE648094805026C360
:1010B000EF9405EE648094805002D23CD3EF940507
:1010C000EE64809480407CEF940AEE6480948050BB
:1010D00072D23C806ED223806A20436790000AE07F
:1010E000FEA3E0FFC3941EEE648094805045C3EFDE
:1010F000940FEE64809480501A7C007D0512135F7B
:10110000C3ED9404EC64809480500575DA46800346
:10111000E4F5DAC23C90000AE0FEA3E0FF7C007D2B
:101120000A12135FC3ED9409EC648094805014D2CA
:101130003C801090000AE4F0A3741EF0752D03C2E9
:1011400043C223C390000BE0943C90000AE064800B
:101150009480500DA3E004F0701090000AE004F0B9
:0B1160002290000AE4F0A3741EF022AD
:101BCA0090000AE0FEA3E0FFC3940AEE64809480CA
:101BDA005038EE7020EF24FE600C24FD60102405BE
:101BEA007013D23D8000D2A3D2A1C2A2800DE4F527
:101BFA00DAC23D8006D2A3D2A1D2A290000BE004A1
:101C0A00F0701390000AE004F02290000AE4F0A3B6
:071C1A007432F0752D032266
:101E3400E4F5DAF527F52AD2A3D2A1D2A2C227303B
:101E44000211C220C202C201C236C225C224D2314A
:0E1E5400121D36752D03E490000AF0A3F02253
:101FFF00C227C220C202C225752D03300707E49005
:06200F00000AF0A3F0221C
:1017470090000AE0FEA3E0FF7C007D0312135FEC2C
:101757007031ED14601114601C24027026C2A0D2EF
:1017670096D297C2A38024D2A0C296D297D2A3C200
:10177700A1D2A2801AD2A0D296C297D2A3D2A1C2D6
:10178700A2800CD2A0D296D297D2A3D2A1D2A22065
:101797000716D2A0D296D297D2A3D2A1D2A2752DE4
:1017A70003E490000AF0A3F090000AE475F0011238
:1017B70013ABFED3E5F0946FEE64809497400A90E4
:0A17C700000A740BF0A374B8F022BE
:101FD200D2A0D296D297D2A3D2A1D2A2752D03E4D7
:071FE20090000AF0A3F022B9
:10192B00200A07E4F5DAF527F52A121991200705A5
:10193B00121416800312125190000AE0FEA3E0FF6E
:10194B007C007D0212135FED4C7008D2A3C2A1D2B2
:10195B00A28006D2A3D2A1D2A290000AE475F00114
:10196B001213ABFED3E5F0946FEE648094974015A1
:10197B00300A08E490000AF0A3F02290000A740BDE
:06198B00F0A374B8F02285
:101CBB00200A07E4F5DAF527F52A12199120070512
:101CCB001214168003121251D2A3C2A1D2A29000F9
:101CDB000AE475F0011213ABFED3E5F0946FEE64DA
:101CEB00809497400A90000A740BF0A374B8F0220A
:1015830090000AE475F001121395FEC3E5F094325E
:10159300EE64809480505F90000AE0FAA3E0FB7C45
:1015A300007D0AFFAE0212135FED64024C700EC29F
:1015B300A3C2A1C2A2C2A0C296C297800CD2A3D2D8
:1015C300A1D2A2D2A0D296D297C3EB9419EA648097
:1015D3009480504790000AE0FEA3E0FF7C007D0565
:1015E30012135FC3ED9404EC64809480500475DAA5
:1015F3004622E4F5DA22752D03E490000AF0A3F005
:10160300D2A3D2A1D2A2D2A0D296D297200B0620E7
:0C1613002003301406C227C220C20222AD
:101C210090000AE0FEA3E0FF7C007D0212135FED4D
:101C31004C700EC2A3C2A1C2A2D2A0D296D29780EA
:101C41000CD2A3D2A1D2A2C2A0C296C297E4F5DA65
:101C5100F527F52A90000A75F0011213ABFED3E5C2
:101C6100F0946FEE64809497400A90000A740BF030
:051C7100A374B8F0228D
:10161F00900002E0FEA3E0FF7C007D3C12134D9092
:10162F000008E0FCA3E02FFFEC3EFE90000EE07000
:10163F0002A3E060050FBF00010EC3EF94B4EE6488
:10164F008094804005E4FAFB80047A007B01EB6410
:10165F00014A700FC3EF943CEE6480948050047A7B
:10166F00007B02EB64024A700FC3EF941EEE64809E
:10167F00948050047A007B03EB64034A700FC3EF2E
:10168F009405EE6480948050047A007B04EA701510
:10169F00EB14600A04700ED2A3C2A1D2A222D2A36D
:0B16AF00D2A1C2A222C2A3D2A1D2A2EB
:0116BA00220D
:101C760012199120320D2007051214168007121230
:101C8600518002C29612161F90000AE475F00112E6
:101C960013ABFED3E5F09432EE6480948040159049
:101CA600000A740BF0A374B9F0752D03C246D2A0D6
:051CB600D296D2972236
:100C1200E52DC394025003020CFFA236B3308601C5
:100C2200B35007E490000AF0A3F0A203309401B39A
:100C32005007E490000AF0A3F0A236B39286A29481
:100C42009203200302C23630820820340520420279
:100C5200D227202703020CFFC3900029E094329090
:100C62000028E064809480500FA3E004F0700690A6
:100C72000028E004F0020CFFC3900031E094589089
:100C82000030E064809482500CA3E004F07006907F
:100C92000030E004F0A282B35026C3900031E09409
:100CA20058900030E0648094824015A282B33002F2
:100CB20001B35007E490000AF0A3F0A282B39202BB
:100CC200A282B34038A282B3300201B3502F900007
:100CD2003BE0940390003AE0648094804011E4F099
:100CE200A3F090000AF0A3F0A282B39202800E90C9
:100CF200003BE004F0700690003AE004F0121CFBA6
:100D0200304405752D08C24430450C752D09C24585
:100D1200E490000AF0A3F030110C752D0AC211E420
:100D220090000AF0A3F030120C752D0BC212E49061
:100D3200000AF0A3F030470C752D0CC247E4900076
:100D42000AF0A3F0E52D600F30400C752D02E490FF
:100D5200000AF0A3F0C240E52DB414004003020ED5
:100D620037900D6AF8282873020DA6020DAC020D09
:100D7200B2020DB8020DBD020DC2020DC7020DCCAA
:100D8200020DD1020DD6020DDB020DE0020DEB02C7
:100D92000DF0020DF5020E37020DFA020DFF020EE2
:100DA20004020E3412116B020E37121DA2020E370C
:100DB20012184B020E371214D8807A120E45807523
:100DC2001210808070121BCA806B121E3480661251
:100DD20017478061121FD2805C12192B8057121C98
:100DE200BB120003E4F52D804C1215838047121CC0
:100DF200768042121C21803D121FFF8038121E6233
:100E020080331217D1C390000BE0945390000AE094
:100E120064809480500CA3E004F0700690000AE015
:100E220004F0900021E004F07006900020E004F04D
:100E32008003120F7EE5277004E52A6003D2952213
:030E4200C2952234
:0300730002206BFD
:06206B0053917FB2003228
:03005B00021E8DF5
:101E8D00C0E0C0D030D919C2D9E545F5E9E544F532
:101E9D00EAD206E425E9F545E5EA3464F544800324
:081EAD0053D879D0D0D0E03207
:10007600C2A3E4F520F524F521F528F522F526F5A9
:100086002DA236B39286F53190003AF0A3F0C23431
:10009600C2289000307402F0A37459F0C242C240E4
:1000A600C241D208C235D233E4F52BF52CF548F51A
:1000B60049F559F55AC203C236C202D20790001258
:1000C600F0A3F0F54312202FC2A6D291D292C29588
:1000D60012006C12205012207512207912205AD26A
:1000E600ACD28ED299C222900028E4F0A37432F0EA
:1000F600E4F5E643E61043E680D2AFF5EC754A53E5
:10010600754B54C2A3C2A1C2A2C2A0C296C2971284
:100116000003D2A5E4900022F0A3F0900042F0A3E1
:10012600F0C21690002CF0A3F0C21775BB0F121E7A
:10013600DBE490003CF0A3F0122015E55A45597017
:100146000885465985475A800CE547255AF55AE5EC
:10015600463559F55990003DE004F0700690003C94
:10016600E004F0C390003DE0941090003CE0648011
:10017600948040C4E4F5BBF529D3E55A9480E5594B
:100186009408400CE55A94C0E559940C5002D248A4
:10019600121EDBE4900034F0A3F0900026F0A3F0EA
:1001A60090002EF0A3F090000AF0A3F0900038F033
:1001B600A3F0E4F5EC121A573006F7C206120C1239
:1001C600A293B39207121B73900043E004F07006EB
:1001D600900042E004F0900042E0FEA3E0FF7C00C5
:1001E6007D0212135FED4C60030202D93007030251
:1001F60002D93017030202D93020030202D975BB97
:100206000C121EDB12005EE4F5BB90002CE0FEA390
:10021600E0FFEE60030202D9EF14603314700302AC
:1002260002B0240260030202D9D3900043E0942C6A
:10023600900042E064809481500AE52DC3940250F8
:10024600030202D990002CE4F0A304F00202D9D3F1
:10025600E5499400E5489403400E90001DE004F043
:10026600700690001CE004F0C3E54894035007E4D0
:1002760090001CF0A3F090001CE0FEA3E0FFD394D6
:1002860007EE64809480400CC2A3D2A1D2A2C2A081
:10029600D296D297D3EF940AEE648094804034903D
:1002A600002CE4F0A37402F08029752D1375DA464C
:1002B600E4900022F0A3F0900040F0A3F0D217D211
:1002C600A3D2A1D2A2D2A0D296D29790002CF0A30C
:1002D6007403F030180E900005E004F070069000EC
:1002E60004E004F0D3900005E0941E900004E0645E
:1002F600809480401D900038E07004A3E064017093
:1003060011D2A6900038F0A37402F0E4900004F035
:10031600A3F0D3900005E09405900004E064809477
:10032600804016900038E07004A3E06402700AC2B0
:10033600A6900038F0A3F0C21830081EE52DB404CC
:1003460019900000E4F0A3745AF0C3E52B94EA5028
:1003560009900000E4F0A374BEF0E4F532300A031D
:10036600433201300903433202300803433204307A
:100376000753C3900035E09458900034E0648094AD
:1003860082500EA3E004F0705B900034E004F0802D
:1003960053E4900034F0A3F0C3900027E0946890F3
:1003A6000026E064809481500CA3E004F07006906F
:1003B6000026E004F090002FE004F0702790002E55
:1003C600E004F0801FE4900034F0A3F0900026F0E3
:1003D600A3F090002EF0A3F0C20F900010F0A3F04F
:1003E600C20CC242E53224FE700302047024FE7081
:1003F600030204BA240360030204D4D3E52C943028
:10040600E52B94E34021D3900027E0941490002636
:10041600E0648094804010C208D209C20AE4F0A3C6
:10042600F0900044F0A3F0C3E52C9490E52B94CD16
:100436005022E52DB4041DC390001BE094C8900023
:100446001AE064809480500CA3E004F070069000DB
:100456001AE004F0D3E52C9490E52B94CD4075E595
:100466002D6404706F90001A805FC3E52C9460E5DC
:100476002B94D15006C208C209D20AD3E52C9400A7
:10048600E52B94EA404ED3900027E0946490002632
:10049600E064809480403DD208C209C20AE490001C
:1004A60044F0A3F0900026F0A3F0900000F0A374AF
:1004B6005AF08020C3E52C9460E52B94DC5015C2DD
:1004C60008D209C20AE4900044F0A3F08006C208EC
:1004D600C209D20AE531C39414500505310201B8A8
:0804E600E4F5ECF5310201B868
:10133400BB010689828A83E0225002E722BBFE02B7
:09134400E32289828A83E49322EA
:10134D00EF8DF0A4A8F0CF8CF0A428CE8DF0A42EB4
:02135D00FE226E
:10135F00C2D5EC30E709B2D5E4C39DFDE49CFCEEA9
:10136F0030E715B2D5E4C39FFFE49EFE1213C1C34D
:10137F00E49DFDE49CFC80031213C130D507C3E448
:06138F009FFFE49EFE2218
:10139500C5F0F8A3E028F0C5F0F8E58215827002E3
:0613A5001583E038F02280
:1013AB00A3F8E0C5F025F0F0E582158270021583F5
:0613BB00E0C838F0E82252
:1013C100BC000BBE0029EF8DF084FFADF022E4CC10
:1013D100F875F008EF2FFFEE33FEEC33FCEE9DECD9
:1013E100984005FCEE9DFE0FD5F0E9E4CEFD22ED1F
:1013F100F8F5F0EE8420D21CFEADF075F008EF2F69
:10140100FFED33FD4007985006D5F0F222C398FD59
:051411000FD5F0EA22F6
:00000001FF
