:03040000020403F0
:0C040300787FE4F6D8FD75817D0204309E
:0B7DF500250601010138071BA5C23D57
:101C4E0030313233343536373839414243444546E4
:101C5E00424F0000535400004554000053530000FF
:101C6E0055500000524600005449000056490000ED
:101C7E00524300004D55000043480000544D0000F3
:101C8E004253000042410000534C000052440000F9
:101C9E00424C0000415000004C5300004F460000E3
:0C1CAE004D440000494E0000525300005D
:10235F0075D84053D9BF75D90175DA4875DB497502
:10236F00FA8075FC1E75EA4075EB4043D94075EC59
:02237F004022FA
:0A249300758920758E08758DB02242
:1023E30075F2FE75F36F75A4F975A52075A6607572
:0F23F300D4C775D52175D69075E10175E24122E9
:0404200075B2C122CE
:0C24870012235F1224931223E3020420AE
:0424BF00759850229A
:1022CA007FFF1222E81222E87F571222E87F41128A
:0E22DA0022E87F4B1222E87F0D1222E87F0AD5
:0922E800EF302AFDC22A8F992271
:102438007E00540F244EF582EE341CF583E493FF9E
:08244800302AFDC22A8F9922FF
:10221F00AD07AC06ECC4540F122438EC12243AEC80
:10222F00C4F854F0C8EDC4540F48122438ED540FBD
:0F223F00244EF582EE341CF583E493FF0224480D
:101A5900AB07AA067C037DE8121685EF4E600F746A
:101A69004E2FF582741C3EF583E493FF80027F209C
:101A79001224487C037DE8AF03AE02121685AA043E
:101A8900AB057C007D64AF03AE02121685744E2F40
:101A9900F582741C3E1224437C007D64AF03AE02C0
:101AA900121685AA04AB057C007D0AAF03AE0212AB
:101AB9001685744E2FF582741C3E1224437C007DDA
:101AC9000AAF03AE02121685AA04AB05744E2BF5B4
:0C1AD90082741C3AF583E493FF02244859
:10240200AE07EEC4540F7C00540F244EF582EC123A
:0D2412002441EE540F901C4E93FF0224480D
:0424C30075D10822A5
:0A249D0075910775938075958022F4
:0724B10053D9BFE4F5D92265
:0A24A700E4F5BB75BA1F75E880224A
:101E9100C2EDD2EC30EDFD85BE6485BD65E5304512
:101EA1002F7012E565AE647806C333CE33CED8F910
:101EB100F5308E2F22E52FC4F854F0C868FEE530C6
:101EC100C4540F48FFC3E5309FF530E52F9EF52F31
:101ED100E565AE647802C333CE33CED8F92530F54B
:071EE10030EE352FF52F2232
:0E041200C2EDD2EC30EDFD85BE5985BD5A22FB
:0E247900C2EDD2EC30EDFD85BE5785BD582278
:1020A500D3E5739480E57294084013E57394C0E515
:1020B50072940C5009900012E4F0A37403F0C3E588
:1020C5007394F0E57294124013E57394A0E572944D
:0D20D500175009900012E4F0A37404F022EB
:10231700900036E4F0A304F000900037E004F0707A
:1023270006900036E004F0900036E0B403EAA3E03C
:04233700B4E8E522FF
:10233B00900036E4F0A304F000900037E004F07056
:10234B0006900036E004F0900036E07004A3E064E1
:04235B006470E522A3
:03040F000221893E
:10218900C0E0C0D075D000C000309819C298E56988
:10219900540F2444F8A699E569C3940F50040569BE
:1021A9008003756900309904C299D22AD000D0D031
:0321B900D0E03241
:10241F00E4FF12165AB55D0E740129F9E43AFA1267
:08242F00165AB55E010F7E0094
:012437002282
:1021BC00856A5D856B5EE4F508E50875F004A4247A
:1021CC005EF9741C35F0FA7BFF12241FEF4E60068B
:1021DC008508097508170508E508C3941740DAAF98
:0121EC0009E9
:0121ED0022CF
:102381007FFF1222E81222E8AF6A1222E8AF6B1235
:1023910022E8AF6C1222E87F0D1222E87F0A0222A6
:0123A100E853
:1021EE007FFF1222E81222E8907DF6E493901C4EB7
:1021FE0093FF1222E8907DF7E493901C4E93FF120A
:10220E0022E87F341222E87F0D1222E87F0A022292
:01221E00E8D7
:10206700900012E07002A3E07FFF60201222E812C6
:1020770022E8900012E0FEA3E0244EF582741C3E95
:10208700F583E493FF1222E87F30800B1222E812D7
:0E20970022E87F781222E81222E81222DE22CE
:101B6800E53870177FFF1222E81222E87F49122217
:101B7800E87F4E1222E87F491222DEE538640170C0
:101B8800177FFF1222E81222E87F491222E87F4ECF
:101B98001222E87F521222DEE538640270177FFFB6
:101BA8001222E81222E87F491222E87F4E1222E828
:101BB8007F441222DEE538640370177FFF1222E8A3
:101BC8001222E87F491222E87F4E1222E87F45124E
:031BD80022DE22E8
:0724B800908000E493FF2275
:1023A200C3E53E9414E53D64809480500575DA4699
:1023B2008006E4F5DA1224B8053EE53E7002053DDA
:0123C20022F8
:1011B30090001EE0FEA3E0FFC3940FEE64809480D2
:1011C300501690003AE07002A3E0700CD2A3D2A1B3
:1011D300C2A2D2A0D296C297D3EF940FEE648094AA
:1011E30080401E90003AE07002A3E07014F5DA909C
:1011F300003AF0A304F0E490000EF0A3F0C215C28D
:101203000530154FD2A3D2A1C2A2D2A0D296D297B3
:1012130090003AE0FEA3E0FF64024E7002C2A5EF25
:1012230064034E702E900004E0FEA3E0FFC3900021
:101233001FE09FFF90001EE09EFED3EF941EEE641E
:10124300809480400ED2A3D2A1D2A2D2A0D296D2B1
:1012530097C2A520156690003AE07004A3E06401EC
:10126300705A2005051222CAD20590001EE0FEA383
:10127300E0FF7C007D14121685ED4C703F7FFF125A
:1012830022E81222E87F4F1222E87F461222E81258
:1012930022DEC390000FE0940390000EE06480947C
:1012A30080500EA3E004F0700690000EE004F0807E
:1012B3000BD21590003AE4F0A37402F090001FE003
:0B12C30004F0700690001EE004F02212
:1022F100E4FDFC744E2DF582741C3CF583E493B52A
:102301000705AF05AE04220DBD00010CED64104CB4
:0523110070E1E4FEFF95
:0123160022A4
:100BDA001221BCAB07EBB417004003020F7B900B4A
:100BEA00EFF8282873020C34020C6F020C90020CE6
:100BFA00B9020CD0020CE3020CF4020D22020D3CE5
:100C0A00020D96020DB1020DC5020E65020E7102A9
:100C1A000EC0020EDA020EEE020F00020F11020FD0
:100C2A001C020F3C020F4C020F55E56CB45016C261
:100C3A0001C204C228C287E4F52A753102F535F5E6
:100C4A0036D250C251E56CB44604C250D251E56C5A
:100C5A00B4520FC252C250C251C22FE4F535F53612
:100C6A00F531020F4AE56CB44F0AD253753105E4E7
:100C7A00F535F536E56CB4460A305307C253E4F548
:100C8A0035F536020F4AE56CB44F0AD25275310770
:100C9A00E4F535F536E56CB44605C252753110E512
:100CAA006CB44808753114E4F535F536020F4AE597
:100CBA0031B4030FE56CB44F0AD210E4F535F536BA
:100CCA00753106020F4AE56CB45304D254C214E5D6
:100CDA006CB44402D255020F4AE56CB45302D211E5
:100CEA00E56CB44402D212020F4AE56CB44F1F20DD
:100CFA00021CE53164056016E53164136010E531C4
:100D0A006412600AD25675310DE4F535F536E56C94
:100D1A00B44602C256020F4AE56CB44402D257E501
:100D2A006CB4420BD259D224E490002AF0A3F00208
:100D3A000F4AE56C64427023F520F525F521F52A62
:100D4A00F522F531C228C202C201C23EC22DC22C0E
:100D5A00F535F536900014F0A304F0300211E56C75
:100D6A00644F7024C239D22CC2147538018019E537
:100D7A006CB44614C239D22CC23D305202C22CE4A1
:100D8A0090002CF0A3F0F538E4F57B2230010BE556
:100D9A006CB44F02D23BD2138009E56CB44602D23E
:100DAA003BD213E4F57622C23AC287E4F568F535F8
:100DBA00F536F579F57AC253C22B22AF6C1222F1BD
:100DCA00900000EEF0A3EFF0900000E0FEA3E0FF39
:100DDA007C007D0A121673900000EEF0A3EFF0AFCC
:100DEA006D1222F1900001E02FF0900000E03EF039
:100DFA00AF6F1222F1900006EEF0A3EFF09000061A
:100E0A00E0FEA3E0FF7C007D0A121673900006EE56
:100E1A00F0A3EFF0AF701222F1900007E02FF090EC
:100E2A000006E03EF0AF721222F190000CEEF0A341
:100E3A00EFF090000CE0FEA3E0FF7C007D0A1216A2
:100E4A007390000CEEF0A3EFF0AF731222F1900052
:100E5A000DE02FF090000CE03EF022E56C64446057
:100E6A0003020F7BC23022E56C64546003020F7BDD
:100E7A007FFF1222E81222E87F421222E87B3030FA
:100E8A0008027B323009027B31300A027B30AF0321
:100E9A001222E8300411209206200E03300F047F3C
:100EAA004680067F4380027F4E1222E87F0D12227F
:100EBA00E87F0A0222E8E56C64506003020F7BD2E5
:100ECA0018900034F0A304F0E4900002F0A3F0229A
:100EDA00E56C64596003020F7B90002C7402F0A346
:100EEA00743AF022E56C64536003020F7B7531118A
:100EFA00F53DF53E8078E56CB449031221EEE56CC8
:100F0A006448706D022067E56CB45002D214D2575F
:100F1A00805CE56C64467059D21590003AF0A3746F
:100F2A0003F090001EE0FFA3E0900004CFF0A3EFCF
:100F3A00F022E56CB44F02C223E56CB44602D22318
:100F4A00802CE56C64467029021B68E56C64547059
:100F5A0020C22FC228C202C201C23EC22DC22CC266
:100F6A0004C253C223F535F536F538753104122318
:010F7A0081F5
:010F7B002253
:101D1F00E55F65696059E4F5EC7444255FF8E6FF0B
:101D2F0024F3603B2403701B120BDAE4F534E53423
:101D3F005407246AF8E4F60534E534B408F0E4F502
:101D4F0034801C7444255FF8E6FF746A2534F8A6C6
:101D5F0007E534C39407500405348003753407E551
:0F1D6F005FC3940F5004055F80A6E4F55F80A169
:011D7E002242
:10211C00208130E554C3941E502C0554E554C394CF
:10212C001E402330020C205209B201D229E4F535AD
:10213C00F53620020A300307B23EE4F535F5367564
:07214C00541F22E4F55422A8
:1023C3007FFF1222E81222E87F501222E81F122216
:1023D300E87F521222E87F0D1222E87F0A0222E8E8
:10158C00C3E5369408E53564809487400302163031
:10159C000536E53670020535940AE535648094808D
:1015AC004013E536940FE53564809480500775DA66
:1015BC0046D2488005E4F5DAC248AE35AF367C0039
:1015CC007D0A121685AF05EC704CEF146014146094
:1015DC001714601C14602314602E24057038C2A3E9
:1015EC008036D2A3C2A18032D2A3D2A1C2A2802CB7
:1015FC00D2A3D2A1D2A2C2A08024D2A3D2A1D2A221
:10160C00D2A0C296D297801FD2A3D2A1D2A2D2A02E
:10161C00D296C2978011D2A3D2A1D2A2D2A0D29636
:10162C00D2978003753101C3E5369409E5356480A2
:10163C0094804010305105753101C2513050057500
:0D164C003102C250E5316005E4F535F53698
:01165900226E
:10227A00AE35AF367C007D0A121685ED4C7004C26D
:10228A00A38002D2A3D2A1D2A2D2A0D296D297057B
:08229A0036E53670020535221D
:101CBA00C3E5369405E53564809480500575DA46A7
:101CCA008003E4F5DAC3E5369432E535648094801E
:101CDA00500ED2A3C2A1D2A2D2A0D296D29780216C
:101CEA00D2A3D2A1D2A2D2A0D296D2977531043071
:101CFA00020375310330030375310330070375316D
:101D0A00030536E53670020535E53164026005E4FF
:051D1A00F535F536224D
:1017EB00C291C292756600756714E531B40D06752A
:1017FB006600756732AC66AD67AE35AF36121685CF
:10180B00ED4C7014300806D2A0C296D29730090E58
:10181B00D2A0D296C2978006D2A0D296D297300A87
:10182B0006C2A0D296D297A20B300A01B3500C304D
:10183B000A05E4F535F536A20A920B300A4DE5316F
:10184B0064036047E531640D6041C3E5369405E5FB
:10185B003564809480500575DA468003E4F5DAC26E
:10186B0049C3E5369405E535648094805002D2492E
:10187B00D3E5369405E53564809480400EE53694C7
:0C188B000AE535648094805002D24922A6
:101D7F00A207300401B35009A2079204D23AE4F546
:101D8F0068AE35AF367C007D0A121685ED64064CC1
:101D9F00703D303A3A7FFF3004141222E81222E8E5
:101DAF007F431222E87F481222E87F4F80121222CF
:101DBF00E81222E87F431222E87F481222E87F468A
:101DCF001222DEE568C394035003056822C23A224B
:10172600C3E563942CE5626480948140030217E26A
:10173600309132D2A3D2A1D2A2D2A0D296D297C34E
:10174600E53A9432E539648094805008053AE53AE2
:1017560070020539D3E53A941EE5396480948040D9
:101766000BD20C8007E4F539F53AC20C20926120C1
:101776000C5E300820300F04C2968015AE35AF36A9
:101786007C007D14121685ED4C7004C2968002D240
:1017960096D297D2A0300919AE35AF367C007D14AB
:1017A600121685ED4C7004C2978002D297D296D25B
:1017B600A0300A19AE35AF367C007D14121685EDC1
:1017C6004C7004C2A08002D2A0D297D296C20E223A
:1017D600C296D297D2A0300C0BD29622C296D2973E
:0517E600D2A0D20E228A
:101F3E0020070E203D0B1222CAD23D753F00754080
:101F4E000130393BAE3FAF407C007D0A121685ED65
:101F5E004C70247FFF1222E81222E87F521222E8F0
:101F6E007F431222E87F4F1222DEE57BC39403509B
:101F7E0004057B8002C2390540E5407002053F2210
:101E3900203B3DAE5BAF5C7C007D14121685ED4CFA
:101E4900702E7FFF3001141222E81222E87F4D1212
:101E590022E87F551222E87F4F80121222E81222CF
:101E6900E87F4D1222E87F551222E87F461222DED2
:101E7900E576C39403500405768004C238D23B0545
:081E89005CE55C7002055B22C0
:10215300AE35AF367C007D1E121685ED4C702630F1
:1021630039237FFF1222E81222E87F521222E87FEE
:10217300431222E87F461222DEE57BC39403500319
:06218300057B22C2392297
:10083300305209D2A3D2A1D2A2020B9B20020302FF
:100843000A01202813D228D239E4F57BC22CC22D09
:10085300900024F0A3F0C23E30290DC229D238E41F
:10086300F576C23BF55BF55C302C0FE4F535F536D8
:10087300C22CD22DD23FF560F561121F3E121E39F4
:10088300305203020B9B303F58C24BC3E5619405C2
:10089300E560648094805002D24BD3E5619405E512
:1008A3006064809480400EE561940AE560648094FE
:1008B300805002D24BC3E5619405E5606480948067
:1008C300500575DA468003E4F5DA0561E561AE604B
:1008D3007002056014D3940FEE648094804002C2CA
:1008E3003FA201923E200103020988302D2C2038BB
:1008F30023AE35AF367C007D32121685EC700DEDDC
:10090300146007047006C2A380048008D2A3D2A196
:10091300D2A28006D2A3D2A1C2A2302D1E30131BB5
:10092300C3E5369405E53564809480500775DA464F
:10093300D24A8007E4F5DAC24AC213A203302E0179
:10094300B340030209F6300318C24AC24FC23BC385
:10095300E5369405E535648094805023D24F02092F
:10096300F6C24FC3E5369405E535648094805002A2
:10097300D24FD3E5369405E535648094804074A264
:1009830003922E806E302D1E30131BC3E536940563
:10099300E53564809480500775DA46D24A8007E4CF
:1009A300F5DAC24AC213A203302E01B35022C24F5A
:1009B300C3E5369405E535648094805002D24FD365
:1009C300E5369405E535648094804004A203922EB5
:1009D300203820302D17AE35AF367C007D3212160D
:1009E30085ED4C7004C2A38006D2A38002C2A3D2B9
:1009F300A1D2A2203803020B9BC2A2020B9B302878
:100A030019C228D239E4F57BC22CC22DC201D23BD4
:100A1300C23EC23D900024F0A3F0302C0FC22CD272
:100A23002DE4F535F536F560F561D23F12215330EB
:100A33003F58C24BC3E5619405E5606480948050E0
:100A430002D24BD3E5619405E56064809480400E47
:100A5300E561940AE560648094805002D24BC3E55B
:100A6300619405E56064809480500575DA468003DF
:100A7300E4F5DA0561E561AE607002056014D394B4
:100A83000FEE648094804002C23F200303020B29CF
:100A9300D22E303E49AE35AF367C007D141216851A
:100AA300ED4C7008D2A3D2A1C2A28006D2A3D2A1D8
:100AB300D2A2C3E5369405E535648094805005756C
:100AC300DA468003E4F5DAC24FC3E5369405E5352B
:100AD300648094804003020B9BD24F020B9BC3E5BF
:100AE300369405E53564809480500775DA46D2A2C2
:100AF3008003E4F5DAC24FC3E5369405E535648037
:100B030094805002D24FD3E5369405E53564809442
:100B1300805003020B9BE536940AE535648094808C
:100B23005076D24F8072302E34C24FC3E5369405CF
:100B3300E535648094805007D24F75DA468003E42C
:100B4300F5DAD3E5369405E53564809480400EE507
:100B530036940AE535648094805002D24FD2A1D2F4
:100B6300A220392B200728203A25D3E5369414E513
:100B730035648094804012753104E4F535F536C24E
:100B83002DC22EF5DAF529F52BD2A3D2A1D2A230AC
:100B93003904C2A38002D2A3300A3BD3E536940AB8
:100BA300E53564809480402E20072BC249E53C94B0
:100BB30005E53B648094805002D249D3E53C94051B
:100BC300E53B64809480400EE53C940AE53B6480F9
:070BD30094805002D2492278
:10193300121D7F203A3B2007051217EB8033121745
:1019430026C3E57A9405E57964809480500975DAB5
:1019530046D258C2878005E4F5DAC258C3E57A94C3
:1019630014E579648094805008057AE57A7002055D
:1019730079120833301419AE35AF367C007D03126B
:101983001685ED4C6004C2A38002D2A3D2A1D2A2D9
:101993000536E536AE357002053514D3946FEE6423
:1019A300809497400675350B7536B8053CE53CAE1B
:1019B3003B7002053B14D394B7EE6480948B4005CF
:0619C300E4F53BF53C22B7
:101BDB00D2A3D2A1D2A2D2A0D296D297C3E53694E9
:101BEB0014E53564809480500575DA468003E4F57E
:101BFB00DAE4F529F52BD3E5369414E535648094B6
:101C0B00804029303026AE35AF367C007D1412165D
:101C1B0085ED4C70177FFF1222E81222E87F4212EB
:101C2B0022E87F531222E87F441222DE300713751D
:101C3B003103D2A3D2A1D2A2D2A0D296D297C23CC8
:031C4B00C2302282
:1012CE00A20B300A01B3500C300A05E4F53BF53C95
:1012DE00A20A920B300A2FE4F5DAC249C3E53C9418
:1012EE0005E53B648094805002D249D3E53C9405D9
:1012FE00E53B64809480400EE53C940AE53B6480B7
:10130E0094805002D249AE35AF367C007D32121633
:10131E0085ED4C7014300806D2A0C296D2973009D3
:10132E000ED2A0D296C2978006D2A0D296D2973075
:10133E000A2BC2A0D296D297D3E5439464E54264B9
:10134E008094804018753112E4F535F53690001C06
:10135E00F0A3F0C22FC228C202D23CD23030030317
:10136E00753103300203753103300703753103E520
:10137E003164046005E4F535F536301417AE35AF3B
:10138E00367C007D03121685ED4C6004C2A38006E8
:10139E00D2A38002D2A3D2A1D2A2C3E5369470E525
:1013AE003564809497500A0536E536700905358008
:1013BE0005E4F535F536C3E53C94B8E53B64809419
:1013CE008B5009053CE53C7008053B22E4F53BF5E6
:0213DE003C22AF
:101EE80020525230023020280BD228D239E4F57B18
:101EF800C22CC22D30290DC229D238C23BE4F57656
:101F0800F55BF55C302C09E4F535F536C22CD22D9D
:101F1800121F3E021E3930280DC228E4F57BC22C60
:101F2800C22DD239C201302C09E4F535F536C22C60
:061F3800D22D12215322FC
:1013E000D2A0D296D297D2A3D2A1D2A2121D7F129E
:1013F0001EE8202B4520530302149EC24CC3E53641
:10140000940AE53564809480502CC3E5369405E554
:1014100035648094805002D24CD3E5369405E5358E
:10142000648094804078E536940AE5356480948041
:10143000506CD24C8068D22B8064205361C3E53657
:10144000941EE535648094805047C3E536940FE5DB
:101450003564809480501EAE35AF367C007D051219
:101460001685C3ED9404EC64809480500575DA46CB
:101470008003E4F5DAC24CAE35AF367C007D0A124B
:101480001685C3ED9409EC648094805011D24C8091
:101490000D75350075361E753103C253C22BC3E579
:1014A00036943CE5356480948050090536E5367005
:0B14B0000905352275350075361E2237
:101FDD00C3E536940AE535648094805034E5357058
:101FED0021E53624FE600C24FD601024057013D20B
:101FFD004D8000D2A3D2A1C2A2800DE4F5DAC24D6C
:10200D008006D2A3D2A1D2A20536E536700C0535D5
:0B201D00227535007536327531032244
:10224E00E4F5DAF529F52BD2A3D2A1D2A2C22F3012
:10225E000211C228C202C201C23EC22DC22CD23904
:0C226E00122153753103E4F535F53622DA
:10246500C22FC228C202C22D753103300705E4F51B
:0424750035F53622E1
:101AE500753802AE35AF367C007D03121685EC7075
:101AF50031ED14601114601C24027026C2A0D29628
:101B0500D297C2A38024D2A0C296D297D2A3C2A153
:101B1500D2A2801AD2A0D296C297D2A3D2A1C2A233
:101B2500800CD2A0D296D297D2A3D2A1D2A220075E
:101B350016D2A0D296D297D2A3D2A1D2A275310342
:101B4500E4F535F536F5380536E536AE357002057A
:101B55003514D3946FEE64809497400675350B75F4
:031B650036B8226D
:10245000D2A0D296D297D2A3D2A1D2A2753103E450
:05246000F535F5362200
:101DDF00200A07E4F5DAF529F52B121D7F200705F8
:101DEF001217EB8003121726AE35AF367C007D023B
:101DFF00121685ED4C7008D2A3C2A1D2A28006D2D2
:101E0F00A3D2A1D2A20536E536AE35700205351440
:101E1F00D3946FEE64809497400F300A06E4F53543
:0A1E2F00F5362275350B7536B82222
:1020E200200A07E4F5DAF529F52B121D7F200705F2
:1020F2001217EB8003121726D2A3C2A1D2A2053671
:10210200E536AE357002053514D3946FEE648094D3
:0A21120097400675350B7536B822AC
:1019C9000536E53670020535C39432E535648094F1
:1019D900805056AE35AF367C007D0A121685ED640F
:1019E900024C700EC2A3C2A1C2A2C2A0C296C297E3
:1019F900800CD2A3D2A1D2A2D2A0D296D297C3E50B
:101A0900369419E535648094805044AE35AF367C00
:101A1900007D05121685C3ED9404EC648094805012
:101A29000475DA4622E4F5DA22753103E4F535F571
:101A390036D2A3D2A1D2A2D2A0D296D297200B0697
:101A4900202803301409C22FC228C202E4F5382223
:1014BB000536E53670020535C39432E53564809404
:1014CB0080400302157DC3E536940AE535648094AC
:1014DB00805006D2A3D2A1C2A2D3E536940AE53539
:1014EB00648094804012E536940FE53564809480D7
:1014FB005006D2A3D2A1D2A2D3E536940FE5356420
:10150B008094804012E5369419E5356480948050C0
:10151B0006C2A3D2A1D2A2D3E5369419E5356480D5
:10152B0094804012E5369423E53564809480500610
:10153B00D2A3D2A1C2A2D3E5369423E5356480941D
:10154B00804012E5369428E535648094805006D2AD
:10155B00A3D2A1D2A2D3E5369428E535648094803A
:10156B00401EE5369432E535648094805012C2A358
:10157B00800A753103E4F535F536D2A3D2A1D2A298
:01158B00223D
:101F8E00753803AE35AF367C007D02121685ED4CEA
:101F9E00700EC2A3C2A1C2A2D2A0D296D297800CBA
:101FAE00D2A3D2A1D2A2C2A0C296C297E4F5DAF50C
:101FBE0029F52B0536E536AE357002053514D3946A
:0F1FCE006FEE64809497400675350B7536B82218
:10189700900000E0FEA3E0FF7C007D3C12167390F1
:1018A7000006E0FCA3E02FFFEC3EFE90000CE0708A
:1018B70002A3E060050FBF00010EC3EF94B4EE640E
:1018C7008094804005E4FAFB80047A007B01EB6496
:1018D700014A700FC3EF943CEE6480948050047A01
:1018E700007B02EB64024A700FC3EF941EEE648024
:1018F700948050047A007B03EB64034A700FC3EFB4
:101907009405EE6480948050047A007B04EA701595
:10191700EB14600A04700ED2A3C2A1D2A222D2A3F2
:0B192700D2A1C2A222C2A3D2A1D2A270
:011932002292
:10202800121D7F203A0D2007051217EB80071217A3
:10203800268002C2961218970536E536AE3570022C
:10204800053514D39432EE64809480401175350BB5
:0F2058007536B9753103C256D2A0D296D29722EF
:100F7C00E531C394025003021057A23EB3308601F0
:100F8C00B35005E4F535F536A203309401B35005A2
:100F9C00E4F535F536A23EB39286A2949203200373
:100FAC0002C23E308208203C05205202D22F202F54
:100FBC0003021057C3900025E09432900024E064A3
:100FCC00809480500EA3E004F07006900024E0049E
:100FDC00F08078C390002DE0945890002CE0648051
:100FEC009482500CA3E004F0700690002CE004F006
:100FFC00A282B35024C390002DE0945890002CE0B2
:10100C00648094824013A282B3300201B35005E491
:10101C00F535F536A282B39202A282B3402DA2829C
:10102C00B3300201B35024E5789403E577648094DF
:10103C00804010E4F577F578F535F536A282B39259
:10104C000280080578E578700205772023031221C9
:10105C001C30241B90002AE475F0011216BBFED341
:10106C00E5F0940AEE648094804004C259C22430A6
:10107C005405753108C25430550A753109C255E40E
:10108C00F535F53630110A75310AC211E4F535F52E
:10109C003630120A75310BC212E4F535F53630577D
:1010AC000A75310CC257E4F535F536E531600D3073
:1010BC00500A753102E4F535F536C250E531B415F8
:1010CC000040030211A59010D9F8282873021118BA
:1010DC0002111E02112402112902112E02113302D7
:1010EC00113802113D02114202114702114C02113A
:1010FC005102115C0211610211660211A502116B01
:10110C0002117002117502119D0211A212158C02AE
:10111C0011A512227A0211A5121CBA807C12193365
:10112C0080771212CE80721213E0806D121FDD8058
:10113C006812224E8063121AE5805E122450805988
:10114C00121DDF80541220E21223C3E4F5318049D2
:10115C001219C98044122028803F121F8E803A1227
:10116C00246580351223A28030121BDBC3E5369434
:10117C0053E5356480948050080536E536700205D9
:10118C003590001DE004F0700690001CE004F08027
:10119C00081211B380031214BBE5297004E52B600F
:0711AC0003D29522C2952237
:03042D000204279F
:0604270053917FB2003288
:030424000222A20F
:1022A200C0E0C0D030D919C2D9E556F5E9E555F5F7
:1022B200EAD206E425E9F556E5EA3464F5558003E9
:0822C20053D879D0D0D0E032EE
:10043000C2A3E4F520F525F521F52AF522F527F5E7
:1004400031A23EB39286F537F577F578C23CC230DB
:10045000C223F538C259C22490002C7402F0A37450
:1004600059F0C252C250C251D208C23DD23BE4F54B
:100470002FF530F559F55AF572F573C203C23EC235
:1004800002D207F53BF53CF554122487C2A6D2915F
:10049000D292C2951224B112249D1224BF1224C3F9
:1004A0001224A7D2ACD28ED299C22A900024E4F0B2
:1004B000A37432F0E4F5E643E61043E680D2AFF5EC
:1004C000EC755D53755E54C2A3C2A1C2A2C2A0C2A4
:1004D00096C297C2871223C3D2A5E490001EF0A350
:1004E000F090003CF0A3F0900026F0A3F0C2177546
:1004F000BB0F122317E4900036F0A3F0122479E525
:100500007345727008855772855873800CE55825BD
:1005100073F573E5573572F572900037E004F070AB
:1005200006900036E004F0C3900037E0941090008D
:1005300036E06480948040C4E4F5BBF52C90001252
:10054000F0A3F01220A5122317E490002EF0A3F0E0
:10055000900022F0A3F0F562F563F535F5369000D2
:1005600034F0A3F0E4F5EC121D1F3006F7C20612BA
:100570000F7CA293B39207E4900010F0A3F0121E38
:100580009112233B900011E004F07006900010E0FF
:1005900004F0C3900011E09432900010E064809465
:1005A0008040DB90003DE004F0700690003CE004E9
:1005B000F090003CE0FEA3E0FF7C007D0212168577
:1005C000ED4C60030206AE3007030206AE3017039F
:1005D0000206AE3028030206AE75BB0C12231712BA
:1005E0000412E4F5BB900026E0FEA3E0FFEE6003FA
:1005F0000206AEEF14603314700302068524026015
:10060000030206AED390003DE0942C90003CE064E1
:10061000809481500AE531C3940250030206AE90E3
:100620000026E4F0A304F00206AED3E55A9400E5F8
:10063000599403400E900017E004F07006900016E5
:10064000E004F0C3E55994035007E4900016F0A3CA
:10065000F0900016E0FEA3E0FFD39407EE648094D0
:1006600080400CC2A3D2A1D2A2C2A0D296D297D36C
:10067000EF940AEE648094804034900026E4F0A366
:100680007402F0802975311375DA46E490001EF08B
:10069000A3F090003AF0A3F0D217D2A3D2A1D2A235
:1006A000D2A0D296D297900026F0A37403F030081F
:1006B00018E531B40413752D00752E5AC3E52F9437
:1006C000EA5006752D00752EBEE4F541300A03434D
:1006D000410130090343410230080343410430071C
:1006E0004DC390002FE0945890002EE064809482D7
:1006F000500EA3E004F0705190002EE004F0804909
:10070000E490002EF0A3F0C3900023E094689000E2
:1007100022E064809481500CA3E004F07006900005
:1007200022E004F00563E563701F0562801BE4901E
:10073000002EF0A3F0900022F0A3F0F562F563C262
:100740000FF539F53AC20CC252E54124FE6074241B
:10075000FE700302080524036003020819D3E53084
:100760009430E52F94E3401FD3900023E09414903D
:100770000022E064809480400EC208D209C20AE4DC
:10078000F0A3F0F57CF57DC3E5309490E52F94CD92
:10079000501AE531B40415C3E54394C8E5426480BA
:1007A000948050080543E54370020542D3E5309438
:1007B00090E52F94CD4068E53164047062F542F510
:1007C00043805CC3E5309460E52F94D05006C208A6
:1007D000C209D20AD3E5309400E52F94EA4040D311
:1007E000900023E09464900022E064809480402F85
:1007F000D208C209C20AE4F57CF57DF0A3F0F52D1C
:10080000752E5A801AC3E52F94D85013C208D20906
:10081000C20AE4F57CF57D8006C208C209D20AE569
:1008200037C3941450050537020564E4F5ECF53739
:030830000205645A
:10165A00BB010689828A83E0225002E722BBFE028E
:09166A00E32289828A83E49322C1
:10167300EF8DF0A4A8F0CF8CF0A428CE8DF0A42E8B
:02168300FE2245
:10168500C2D5EC30E709B2D5E4C39DFDE49CFCEE80
:1016950030E715B2D5E4C39FFFE49EFE1216D1C311
:1016A500E49DFDE49CFC80031216D130D507C3E40C
:0616B5009FFFE49EFE22EF
:1016BB00C5F0F8A3E028F0C5F0F8E58215827002BA
:0616CB001583E038F02257
:1016D100BC000BBE0029EF8DF084FFADF022E4CCFD
:1016E100F875F008EF2FFFEE33FEEC33FCEE9DECC6
:1016F100984005FCEE9DFE0FD5F0E9E4CEFD22ED0C
:10170100F8F5F0EE8420D21CFEADF075F008EF2F55
:10171100FFED33FD4007985006D5F0F222C398FD46
:051721000FD5F0EA22E3
:00000001FF
